{
  "contractName": "Legislation",
  "abi": [
    {
      "constant": false,
      "inputs": [
        {
          "name": "outcome",
          "type": "bool"
        }
      ],
      "name": "resolve",
      "outputs": [],
      "payable": false,
      "stateMutability": "nonpayable",
      "type": "function"
    },
    {
      "constant": true,
      "inputs": [
        {
          "name": "",
          "type": "address"
        }
      ],
      "name": "userContributions",
      "outputs": [
        {
          "name": "amount",
          "type": "uint256"
        },
        {
          "name": "outcome",
          "type": "bool"
        }
      ],
      "payable": false,
      "stateMutability": "view",
      "type": "function"
    },
    {
      "constant": true,
      "inputs": [],
      "name": "numVotesFor",
      "outputs": [
        {
          "name": "",
          "type": "uint256"
        }
      ],
      "payable": false,
      "stateMutability": "view",
      "type": "function"
    },
    {
      "constant": true,
      "inputs": [
        {
          "name": "",
          "type": "uint256"
        }
      ],
      "name": "users",
      "outputs": [
        {
          "name": "",
          "type": "address"
        }
      ],
      "payable": false,
      "stateMutability": "view",
      "type": "function"
    },
    {
      "constant": true,
      "inputs": [],
      "name": "totalFundsForInWei",
      "outputs": [
        {
          "name": "",
          "type": "uint256"
        }
      ],
      "payable": false,
      "stateMutability": "view",
      "type": "function"
    },
    {
      "constant": false,
      "inputs": [
        {
          "name": "politician",
          "type": "address"
        },
        {
          "name": "vote",
          "type": "bool"
        }
      ],
      "name": "addPoliticianVote",
      "outputs": [],
      "payable": false,
      "stateMutability": "nonpayable",
      "type": "function"
    },
    {
      "constant": true,
      "inputs": [],
      "name": "totalFundsAgainstInWei",
      "outputs": [
        {
          "name": "",
          "type": "uint256"
        }
      ],
      "payable": false,
      "stateMutability": "view",
      "type": "function"
    },
    {
      "constant": true,
      "inputs": [],
      "name": "numVotesAgainst",
      "outputs": [
        {
          "name": "",
          "type": "uint256"
        }
      ],
      "payable": false,
      "stateMutability": "view",
      "type": "function"
    },
    {
      "constant": true,
      "inputs": [
        {
          "name": "",
          "type": "uint256"
        }
      ],
      "name": "politiciansThatVoted",
      "outputs": [
        {
          "name": "",
          "type": "address"
        }
      ],
      "payable": false,
      "stateMutability": "view",
      "type": "function"
    },
    {
      "constant": true,
      "inputs": [],
      "name": "oracle",
      "outputs": [
        {
          "name": "",
          "type": "address"
        }
      ],
      "payable": false,
      "stateMutability": "view",
      "type": "function"
    },
    {
      "constant": false,
      "inputs": [
        {
          "name": "desiredOutcome",
          "type": "bool"
        }
      ],
      "name": "deposit",
      "outputs": [],
      "payable": true,
      "stateMutability": "payable",
      "type": "function"
    },
    {
      "constant": true,
      "inputs": [
        {
          "name": "",
          "type": "address"
        }
      ],
      "name": "politicianVote",
      "outputs": [
        {
          "name": "",
          "type": "bool"
        }
      ],
      "payable": false,
      "stateMutability": "view",
      "type": "function"
    },
    {
      "inputs": [],
      "payable": false,
      "stateMutability": "nonpayable",
      "type": "constructor"
    },
    {
      "anonymous": false,
      "inputs": [
        {
          "indexed": false,
          "name": "_user",
          "type": "address"
        },
        {
          "indexed": false,
          "name": "_amount",
          "type": "uint256"
        },
        {
          "indexed": false,
          "name": "_desiredOutcome",
          "type": "bool"
        }
      ],
      "name": "Deposited",
      "type": "event"
    }
  ],
  "bytecode": "0x6060604052341561000f57600080fd5b336000806101000a81548173ffffffffffffffffffffffffffffffffffffffff021916908373ffffffffffffffffffffffffffffffffffffffff160217905550610e6b8061005e6000396000f3006060604052600436106100ba576000357c0100000000000000000000000000000000000000000000000000000000900463ffffffff1680630bede3f8146100bf5780630f6ca1a8146100e45780630fe67ea51461013c578063365b98b214610165578063511e4f45146101c85780635401b7ea146101f15780636634f7da14610235578063688c5fd51461025e578063729cf94a146102875780637dc0d1d0146102ea578063c57273c21461033f578063d623844614610359575b600080fd5b34156100ca57600080fd5b6100e2600480803515159060200190919050506103aa565b005b34156100ef57600080fd5b61011b600480803573ffffffffffffffffffffffffffffffffffffffff169060200190919050506109ef565b60405180838152602001821515151581526020019250505060405180910390f35b341561014757600080fd5b61014f610a20565b6040518082815260200191505060405180910390f35b341561017057600080fd5b6101866004808035906020019091905050610a26565b604051808273ffffffffffffffffffffffffffffffffffffffff1673ffffffffffffffffffffffffffffffffffffffff16815260200191505060405180910390f35b34156101d357600080fd5b6101db610a65565b6040518082815260200191505060405180910390f35b34156101fc57600080fd5b610233600480803573ffffffffffffffffffffffffffffffffffffffff169060200190919080351515906020019091905050610a6b565b005b341561024057600080fd5b610248610bb4565b6040518082815260200191505060405180910390f35b341561026957600080fd5b610271610bba565b6040518082815260200191505060405180910390f35b341561029257600080fd5b6102a86004808035906020019091905050610bc0565b604051808273ffffffffffffffffffffffffffffffffffffffff1673ffffffffffffffffffffffffffffffffffffffff16815260200191505060405180910390f35b34156102f557600080fd5b6102fd610bff565b604051808273ffffffffffffffffffffffffffffffffffffffff1673ffffffffffffffffffffffffffffffffffffffff16815260200191505060405180910390f35b61035760048080351515906020019091905050610c24565b005b341561036457600080fd5b610390600480803573ffffffffffffffffffffffffffffffffffffffff16906020019091905050610dce565b604051808215151515815260200191505060405180910390f35b6000806000809054906101000a900473ffffffffffffffffffffffffffffffffffffffff1673ffffffffffffffffffffffffffffffffffffffff163373ffffffffffffffffffffffffffffffffffffffff1614151561040857600080fd5b82156106fe57600060075414151561042d5760075460055481151561042957fe5b0491505b600090505b600380549050811015610553576002600060038381548110151561045257fe5b906000526020600020900160009054906101000a900473ffffffffffffffffffffffffffffffffffffffff1673ffffffffffffffffffffffffffffffffffffffff1673ffffffffffffffffffffffffffffffffffffffff16815260200190815260200160002060009054906101000a900460ff1615610546576003818154811015156104da57fe5b906000526020600020900160009054906101000a900473ffffffffffffffffffffffffffffffffffffffff1673ffffffffffffffffffffffffffffffffffffffff166108fc839081150290604051600060405180830381858888f19350505050151561054557600080fd5b5b8080600101915050610432565b600090505b6004805490508110156106f9576001600060048381548110151561057857fe5b906000526020600020900160009054906101000a900473ffffffffffffffffffffffffffffffffffffffff1673ffffffffffffffffffffffffffffffffffffffff1673ffffffffffffffffffffffffffffffffffffffff16815260200190815260200160002060010160009054906101000a900460ff1615156106ec5760048181548110151561060457fe5b906000526020600020900160009054906101000a900473ffffffffffffffffffffffffffffffffffffffff1673ffffffffffffffffffffffffffffffffffffffff166108fc6001600060048581548110151561065c57fe5b906000526020600020900160009054906101000a900473ffffffffffffffffffffffffffffffffffffffff1673ffffffffffffffffffffffffffffffffffffffff1673ffffffffffffffffffffffffffffffffffffffff168152602001908152602001600020600001549081150290604051600060405180830381858888f1935050505015156106eb57600080fd5b5b8080600101915050610558565b6109ea565b600060085414151561071d5760085460065481151561071957fe5b0491505b600090505b600380549050811015610844576002600060038381548110151561074257fe5b906000526020600020900160009054906101000a900473ffffffffffffffffffffffffffffffffffffffff1673ffffffffffffffffffffffffffffffffffffffff1673ffffffffffffffffffffffffffffffffffffffff16815260200190815260200160002060009054906101000a900460ff161515610837576003818154811015156107cb57fe5b906000526020600020900160009054906101000a900473ffffffffffffffffffffffffffffffffffffffff1673ffffffffffffffffffffffffffffffffffffffff166108fc839081150290604051600060405180830381858888f19350505050151561083657600080fd5b5b8080600101915050610722565b600090505b6004805490508110156109e9576001600060048381548110151561086957fe5b906000526020600020900160009054906101000a900473ffffffffffffffffffffffffffffffffffffffff1673ffffffffffffffffffffffffffffffffffffffff1673ffffffffffffffffffffffffffffffffffffffff16815260200190815260200160002060010160009054906101000a900460ff16156109dc576004818154811015156108f457fe5b906000526020600020900160009054906101000a900473ffffffffffffffffffffffffffffffffffffffff1673ffffffffffffffffffffffffffffffffffffffff166108fc6001600060048581548110151561094c57fe5b906000526020600020900160009054906101000a900473ffffffffffffffffffffffffffffffffffffffff1673ffffffffffffffffffffffffffffffffffffffff1673ffffffffffffffffffffffffffffffffffffffff168152602001908152602001600020600001549081150290604051600060405180830381858888f1935050505015156109db57600080fd5b5b8080600101915050610849565b5b505050565b60016020528060005260406000206000915090508060000154908060010160009054906101000a900460ff16905082565b60075481565b600481815481101515610a3557fe5b90600052602060002090016000915054906101000a900473ffffffffffffffffffffffffffffffffffffffff1681565b60055481565b6000809054906101000a900473ffffffffffffffffffffffffffffffffffffffff1673ffffffffffffffffffffffffffffffffffffffff163373ffffffffffffffffffffffffffffffffffffffff16141515610ac657600080fd5b60038054806001018281610ada9190610dee565b9160005260206000209001600084909190916101000a81548173ffffffffffffffffffffffffffffffffffffffff021916908373ffffffffffffffffffffffffffffffffffffffff1602179055505080600260008473ffffffffffffffffffffffffffffffffffffffff1673ffffffffffffffffffffffffffffffffffffffff16815260200190815260200160002060006101000a81548160ff0219169083151502179055508015610b9d57600760008154809291906001019190505550610bb0565b6008600081548092919060010191905055505b5050565b60065481565b60085481565b600381815481101515610bcf57fe5b90600052602060002090016000915054906101000a900473ffffffffffffffffffffffffffffffffffffffff1681565b6000809054906101000a900473ffffffffffffffffffffffffffffffffffffffff1681565b60048054806001018281610c389190610dee565b9160005260206000209001600033909190916101000a81548173ffffffffffffffffffffffffffffffffffffffff021916908373ffffffffffffffffffffffffffffffffffffffff1602179055505034600160003373ffffffffffffffffffffffffffffffffffffffff1673ffffffffffffffffffffffffffffffffffffffff168152602001908152602001600020600001819055508015610ce95734600560008282540192505081905550610cfa565b346006600082825401925050819055505b80600160003373ffffffffffffffffffffffffffffffffffffffff1673ffffffffffffffffffffffffffffffffffffffff16815260200190815260200160002060010160006101000a81548160ff0219169083151502179055507f35dbbfd0d3585577ae3feb7437be44befd94c36d05e086795fa0016e0d22d496333483604051808473ffffffffffffffffffffffffffffffffffffffff1673ffffffffffffffffffffffffffffffffffffffff16815260200183815260200182151515158152602001935050505060405180910390a150565b60026020528060005260406000206000915054906101000a900460ff1681565b815481835581811511610e1557818360005260206000209182019101610e149190610e1a565b5b505050565b610e3c91905b80821115610e38576000816000905550600101610e20565b5090565b905600a165627a7a7230582039017916d7a4a14cc5690e683e9113324870a36a678faa922009ee653935b8b40029",
  "source": "pragma solidity^0.4.18;\n\ncontract Legislation {\n\n    struct earmarkedDeposit {\n        uint amount;\n        bool outcome;\n    }\n\n    address public oracle;\n    mapping (address => earmarkedDeposit) public userContributions;\n    mapping (address => bool) public politicianVote;\n    address[] public politiciansThatVoted;\n    address[] public users;\n    uint public totalFundsForInWei;\n    uint public totalFundsAgainstInWei;\n    uint public numVotesFor;\n    uint public numVotesAgainst;\n\n    event Deposited(address _user, uint _amount, bool _desiredOutcome);\n\n    modifier onlyOracle() {\n        require(msg.sender == oracle);\n        _;\n    }\n\n    function Legislation() public {\n        oracle = msg.sender;\n    }\n\n    function deposit(bool desiredOutcome) public payable {\n        users.push(msg.sender);\n        userContributions[msg.sender].amount = msg.value;\n        if (desiredOutcome) {\n            totalFundsForInWei += msg.value;\n        } else {\n            totalFundsAgainstInWei += msg.value;\n        }\n        userContributions[msg.sender].outcome = desiredOutcome;\n\n        Deposited(msg.sender, msg.value, desiredOutcome);\n    }\n\n    function resolve(bool outcome) onlyOracle {\n        \n        uint politicianSplit;\n        uint i;\n\n        if (outcome) {\n            if (numVotesFor != 0)\n                politicianSplit = totalFundsForInWei / numVotesFor;\n\n            for (i = 0; i < politiciansThatVoted.length; i++) {\n                if (politicianVote[politiciansThatVoted[i]]) {\n                    politiciansThatVoted[i].transfer(politicianSplit);\n                }\n            }\n\n            for (i = 0; i < users.length; i++) {\n                if (!userContributions[users[i]].outcome) {\n                    users[i].transfer(userContributions[users[i]].amount);\n                }\n            }\n\n        } else {\n\n            if (numVotesAgainst != 0)\n                politicianSplit = totalFundsAgainstInWei / numVotesAgainst;\n\n            for (i = 0; i < politiciansThatVoted.length; i++) {\n                if (!politicianVote[politiciansThatVoted[i]]) {\n                    politiciansThatVoted[i].transfer(politicianSplit);\n                }\n            }\n\n            for (i = 0; i < users.length; i++) {\n                if (userContributions[users[i]].outcome) {\n                    users[i].transfer(userContributions[users[i]].amount);\n                }\n            }\n\n        }\n\n    }\n\n    function addPoliticianVote(address politician, bool vote) onlyOracle {\n        politiciansThatVoted.push(politician);\n        politicianVote[politician] = vote;\n\n        if (vote) {\n            numVotesFor++;\n        } else {\n            numVotesAgainst++;\n        }\n\n    }\n}\n",
  "sourcePath": "/Users/nathan/dcsummit/forum/contracts/Legislation.sol",
  "compiler": {
    "name": "solc",
    "version": "0.4.18+commit.9cf6e910.Emscripten.clang"
  },
  "schemaVersion": "1.0.1",
  "updatedAt": "2018-03-07T11:12:07.977Z"
}