{
  "contractName": "Legislation",
  "abi": [
    {
      "constant": false,
      "inputs": [
        {
          "name": "outcome",
          "type": "bool"
        }
      ],
      "name": "resolve",
      "outputs": [],
      "payable": false,
      "stateMutability": "nonpayable",
      "type": "function"
    },
    {
      "constant": true,
      "inputs": [
        {
          "name": "",
          "type": "address"
        }
      ],
      "name": "userContributions",
      "outputs": [
        {
          "name": "amount",
          "type": "uint256"
        },
        {
          "name": "outcome",
          "type": "bool"
        }
      ],
      "payable": false,
      "stateMutability": "view",
      "type": "function"
    },
    {
      "constant": true,
      "inputs": [
        {
          "name": "",
          "type": "uint256"
        }
      ],
      "name": "users",
      "outputs": [
        {
          "name": "",
          "type": "address"
        }
      ],
      "payable": false,
      "stateMutability": "view",
      "type": "function"
    },
    {
      "constant": false,
      "inputs": [
        {
          "name": "politician",
          "type": "address"
        },
        {
          "name": "vote",
          "type": "bool"
        }
      ],
      "name": "addPoliticianVote",
      "outputs": [],
      "payable": false,
      "stateMutability": "nonpayable",
      "type": "function"
    },
    {
      "constant": true,
      "inputs": [
        {
          "name": "",
          "type": "uint256"
        }
      ],
      "name": "politiciansThatVoted",
      "outputs": [
        {
          "name": "",
          "type": "address"
        }
      ],
      "payable": false,
      "stateMutability": "view",
      "type": "function"
    },
    {
      "constant": true,
      "inputs": [],
      "name": "oracle",
      "outputs": [
        {
          "name": "",
          "type": "address"
        }
      ],
      "payable": false,
      "stateMutability": "view",
      "type": "function"
    },
    {
      "constant": true,
      "inputs": [],
      "name": "billID",
      "outputs": [
        {
          "name": "",
          "type": "string"
        }
      ],
      "payable": false,
      "stateMutability": "view",
      "type": "function"
    },
    {
      "constant": false,
      "inputs": [
        {
          "name": "desiredOutcome",
          "type": "bool"
        }
      ],
      "name": "deposit",
      "outputs": [],
      "payable": true,
      "stateMutability": "payable",
      "type": "function"
    },
    {
      "constant": true,
      "inputs": [
        {
          "name": "",
          "type": "address"
        }
      ],
      "name": "politicianVote",
      "outputs": [
        {
          "name": "",
          "type": "bool"
        }
      ],
      "payable": false,
      "stateMutability": "view",
      "type": "function"
    },
    {
      "inputs": [
        {
          "name": "_billID",
          "type": "string"
        }
      ],
      "payable": false,
      "stateMutability": "nonpayable",
      "type": "constructor"
    },
    {
      "anonymous": false,
      "inputs": [
        {
          "indexed": false,
          "name": "_user",
          "type": "address"
        },
        {
          "indexed": false,
          "name": "_amount",
          "type": "uint256"
        },
        {
          "indexed": false,
          "name": "_desiredOutcome",
          "type": "bool"
        }
      ],
      "name": "Deposited",
      "type": "event"
    }
  ],
  "bytecode": "0x6060604052341561000f57600080fd5b604051610ff6380380610ff6833981016040528080518201919050508060019080519060200190610041929190610088565b50336000806101000a81548173ffffffffffffffffffffffffffffffffffffffff021916908373ffffffffffffffffffffffffffffffffffffffff1602179055505061012d565b828054600181600116156101000203166002900490600052602060002090601f016020900481019282601f106100c957805160ff19168380011785556100f7565b828001600101855582156100f7579182015b828111156100f65782518255916020019190600101906100db565b5b5090506101049190610108565b5090565b61012a91905b8082111561012657600081600090555060010161010e565b5090565b90565b610eba8061013c6000396000f300606060405260043610610099576000357c0100000000000000000000000000000000000000000000000000000000900463ffffffff1680630bede3f81461009e5780630f6ca1a8146100c3578063365b98b21461011b5780635401b7ea1461017e578063729cf94a146101c25780637dc0d1d01461022557806386b2cd351461027a578063c57273c214610308578063d623844614610322575b600080fd5b34156100a957600080fd5b6100c160048080351515906020019091905050610373565b005b34156100ce57600080fd5b6100fa600480803573ffffffffffffffffffffffffffffffffffffffff169060200190919050506109b8565b60405180838152602001821515151581526020019250505060405180910390f35b341561012657600080fd5b61013c60048080359060200190919050506109e9565b604051808273ffffffffffffffffffffffffffffffffffffffff1673ffffffffffffffffffffffffffffffffffffffff16815260200191505060405180910390f35b341561018957600080fd5b6101c0600480803573ffffffffffffffffffffffffffffffffffffffff169060200190919080351515906020019091905050610a28565b005b34156101cd57600080fd5b6101e36004808035906020019091905050610b71565b604051808273ffffffffffffffffffffffffffffffffffffffff1673ffffffffffffffffffffffffffffffffffffffff16815260200191505060405180910390f35b341561023057600080fd5b610238610bb0565b604051808273ffffffffffffffffffffffffffffffffffffffff1673ffffffffffffffffffffffffffffffffffffffff16815260200191505060405180910390f35b341561028557600080fd5b61028d610bd5565b6040518080602001828103825283818151815260200191508051906020019080838360005b838110156102cd5780820151818401526020810190506102b2565b50505050905090810190601f1680156102fa5780820380516001836020036101000a031916815260200191505b509250505060405180910390f35b61032060048080351515906020019091905050610c73565b005b341561032d57600080fd5b610359600480803573ffffffffffffffffffffffffffffffffffffffff16906020019091905050610e1d565b604051808215151515815260200191505060405180910390f35b6000806000809054906101000a900473ffffffffffffffffffffffffffffffffffffffff1673ffffffffffffffffffffffffffffffffffffffff163373ffffffffffffffffffffffffffffffffffffffff161415156103d157600080fd5b82156106c75760006008541415156103f6576008546006548115156103f257fe5b0491505b600090505b60048054905081101561051c576003600060048381548110151561041b57fe5b906000526020600020900160009054906101000a900473ffffffffffffffffffffffffffffffffffffffff1673ffffffffffffffffffffffffffffffffffffffff1673ffffffffffffffffffffffffffffffffffffffff16815260200190815260200160002060009054906101000a900460ff161561050f576004818154811015156104a357fe5b906000526020600020900160009054906101000a900473ffffffffffffffffffffffffffffffffffffffff1673ffffffffffffffffffffffffffffffffffffffff166108fc839081150290604051600060405180830381858888f19350505050151561050e57600080fd5b5b80806001019150506103fb565b600090505b6005805490508110156106c2576002600060058381548110151561054157fe5b906000526020600020900160009054906101000a900473ffffffffffffffffffffffffffffffffffffffff1673ffffffffffffffffffffffffffffffffffffffff1673ffffffffffffffffffffffffffffffffffffffff16815260200190815260200160002060010160009054906101000a900460ff1615156106b5576005818154811015156105cd57fe5b906000526020600020900160009054906101000a900473ffffffffffffffffffffffffffffffffffffffff1673ffffffffffffffffffffffffffffffffffffffff166108fc6002600060058581548110151561062557fe5b906000526020600020900160009054906101000a900473ffffffffffffffffffffffffffffffffffffffff1673ffffffffffffffffffffffffffffffffffffffff1673ffffffffffffffffffffffffffffffffffffffff168152602001908152602001600020600001549081150290604051600060405180830381858888f1935050505015156106b457600080fd5b5b8080600101915050610521565b6109b3565b60006009541415156106e6576009546007548115156106e257fe5b0491505b600090505b60048054905081101561080d576003600060048381548110151561070b57fe5b906000526020600020900160009054906101000a900473ffffffffffffffffffffffffffffffffffffffff1673ffffffffffffffffffffffffffffffffffffffff1673ffffffffffffffffffffffffffffffffffffffff16815260200190815260200160002060009054906101000a900460ff1615156108005760048181548110151561079457fe5b906000526020600020900160009054906101000a900473ffffffffffffffffffffffffffffffffffffffff1673ffffffffffffffffffffffffffffffffffffffff166108fc839081150290604051600060405180830381858888f1935050505015156107ff57600080fd5b5b80806001019150506106eb565b600090505b6005805490508110156109b2576002600060058381548110151561083257fe5b906000526020600020900160009054906101000a900473ffffffffffffffffffffffffffffffffffffffff1673ffffffffffffffffffffffffffffffffffffffff1673ffffffffffffffffffffffffffffffffffffffff16815260200190815260200160002060010160009054906101000a900460ff16156109a5576005818154811015156108bd57fe5b906000526020600020900160009054906101000a900473ffffffffffffffffffffffffffffffffffffffff1673ffffffffffffffffffffffffffffffffffffffff166108fc6002600060058581548110151561091557fe5b906000526020600020900160009054906101000a900473ffffffffffffffffffffffffffffffffffffffff1673ffffffffffffffffffffffffffffffffffffffff1673ffffffffffffffffffffffffffffffffffffffff168152602001908152602001600020600001549081150290604051600060405180830381858888f1935050505015156109a457600080fd5b5b8080600101915050610812565b5b505050565b60026020528060005260406000206000915090508060000154908060010160009054906101000a900460ff16905082565b6005818154811015156109f857fe5b90600052602060002090016000915054906101000a900473ffffffffffffffffffffffffffffffffffffffff1681565b6000809054906101000a900473ffffffffffffffffffffffffffffffffffffffff1673ffffffffffffffffffffffffffffffffffffffff163373ffffffffffffffffffffffffffffffffffffffff16141515610a8357600080fd5b60048054806001018281610a979190610e3d565b9160005260206000209001600084909190916101000a81548173ffffffffffffffffffffffffffffffffffffffff021916908373ffffffffffffffffffffffffffffffffffffffff1602179055505080600360008473ffffffffffffffffffffffffffffffffffffffff1673ffffffffffffffffffffffffffffffffffffffff16815260200190815260200160002060006101000a81548160ff0219169083151502179055508015610b5a57600860008154809291906001019190505550610b6d565b6009600081548092919060010191905055505b5050565b600481815481101515610b8057fe5b90600052602060002090016000915054906101000a900473ffffffffffffffffffffffffffffffffffffffff1681565b6000809054906101000a900473ffffffffffffffffffffffffffffffffffffffff1681565b60018054600181600116156101000203166002900480601f016020809104026020016040519081016040528092919081815260200182805460018160011615610100020316600290048015610c6b5780601f10610c4057610100808354040283529160200191610c6b565b820191906000526020600020905b815481529060010190602001808311610c4e57829003601f168201915b505050505081565b60058054806001018281610c879190610e3d565b9160005260206000209001600033909190916101000a81548173ffffffffffffffffffffffffffffffffffffffff021916908373ffffffffffffffffffffffffffffffffffffffff1602179055505034600260003373ffffffffffffffffffffffffffffffffffffffff1673ffffffffffffffffffffffffffffffffffffffff168152602001908152602001600020600001819055508015610d385734600660008282540192505081905550610d49565b346007600082825401925050819055505b80600260003373ffffffffffffffffffffffffffffffffffffffff1673ffffffffffffffffffffffffffffffffffffffff16815260200190815260200160002060010160006101000a81548160ff0219169083151502179055507f35dbbfd0d3585577ae3feb7437be44befd94c36d05e086795fa0016e0d22d496333483604051808473ffffffffffffffffffffffffffffffffffffffff1673ffffffffffffffffffffffffffffffffffffffff16815260200183815260200182151515158152602001935050505060405180910390a150565b60036020528060005260406000206000915054906101000a900460ff1681565b815481835581811511610e6457818360005260206000209182019101610e639190610e69565b5b505050565b610e8b91905b80821115610e87576000816000905550600101610e6f565b5090565b905600a165627a7a72305820786785c95ed05adaa68810624b8a0782f4202adf4ca3a6d6524b5c790e3c1ced0029",
  "source": "pragma solidity^0.4.18;\n\ncontract Legislation {\n\n    struct earmarkedDeposit {\n        uint amount;\n        bool outcome;\n    }\n\n    address public oracle;\n    string public billID;\n    mapping (address => earmarkedDeposit) public userContributions;\n    mapping (address => bool) public politicianVote;\n    address[] public politiciansThatVoted;\n    address[] public users;\n    uint totalFundsForInWei;\n    uint totalFundsAgainstInWei;\n    uint numVotesFor;\n    uint numVotesAgainst;\n\n    event Deposited(address _user, uint _amount, bool _desiredOutcome);\n\n    modifier onlyOracle() {\n        require(msg.sender == oracle);\n        _;\n    }\n\n    function Legislation(string _billID) public {\n        billID = _billID;\n        oracle = msg.sender;\n    }\n\n    function deposit(bool desiredOutcome) public payable {\n        users.push(msg.sender);\n        userContributions[msg.sender].amount = msg.value;\n        if (desiredOutcome) {\n            totalFundsForInWei += msg.value;\n        } else {\n            totalFundsAgainstInWei += msg.value;\n        }\n        userContributions[msg.sender].outcome = desiredOutcome;\n\n        Deposited(msg.sender, msg.value, desiredOutcome);\n    }\n\n    function resolve(bool outcome) onlyOracle {\n        \n        uint politicianSplit;\n        uint i;\n\n        if (outcome) {\n            if (numVotesFor != 0)\n                politicianSplit = totalFundsForInWei / numVotesFor;\n\n            for (i = 0; i < politiciansThatVoted.length; i++) {\n                if (politicianVote[politiciansThatVoted[i]]) {\n                    politiciansThatVoted[i].transfer(politicianSplit);\n                }\n            }\n\n            for (i = 0; i < users.length; i++) {\n                if (!userContributions[users[i]].outcome) {\n                    users[i].transfer(userContributions[users[i]].amount);\n                }\n            }\n\n        } else {\n\n            if (numVotesAgainst != 0)\n                politicianSplit = totalFundsAgainstInWei / numVotesAgainst;\n\n            for (i = 0; i < politiciansThatVoted.length; i++) {\n                if (!politicianVote[politiciansThatVoted[i]]) {\n                    politiciansThatVoted[i].transfer(politicianSplit);\n                }\n            }\n\n            for (i = 0; i < users.length; i++) {\n                if (userContributions[users[i]].outcome) {\n                    users[i].transfer(userContributions[users[i]].amount);\n                }\n            }\n\n        }\n\n    }\n\n    function addPoliticianVote(address politician, bool vote) onlyOracle {\n        politiciansThatVoted.push(politician);\n        politicianVote[politician] = vote;\n\n        if (vote) {\n            numVotesFor++;\n        } else {\n            numVotesAgainst++;\n        }\n\n    }\n}\n",
  "sourcePath": "/Users/nathan/dcsummit/forum/contracts/Legislation.sol",
  "compiler": {
    "name": "solc",
    "version": "0.4.18+commit.9cf6e910.Emscripten.clang"
  },
  "schemaVersion": "1.0.1",
  "updatedAt": "2018-03-06T23:01:44.465Z"
}