{
  "contractName": "Legislation",
  "abi": [
    {
      "constant": true,
      "inputs": [
        {
          "name": "",
          "type": "address"
        }
      ],
      "name": "userContributions",
      "outputs": [
        {
          "name": "amount",
          "type": "uint256"
        },
        {
          "name": "outcome",
          "type": "bool"
        }
      ],
      "payable": false,
      "stateMutability": "view",
      "type": "function"
    },
    {
      "constant": true,
      "inputs": [
        {
          "name": "",
          "type": "uint256"
        }
      ],
      "name": "users",
      "outputs": [
        {
          "name": "",
          "type": "address"
        }
      ],
      "payable": false,
      "stateMutability": "view",
      "type": "function"
    },
    {
      "constant": true,
      "inputs": [
        {
          "name": "",
          "type": "uint256"
        }
      ],
      "name": "politiciansThatVoted",
      "outputs": [
        {
          "name": "",
          "type": "address"
        }
      ],
      "payable": false,
      "stateMutability": "view",
      "type": "function"
    },
    {
      "constant": true,
      "inputs": [],
      "name": "oracle",
      "outputs": [
        {
          "name": "",
          "type": "address"
        }
      ],
      "payable": false,
      "stateMutability": "view",
      "type": "function"
    },
    {
      "constant": true,
      "inputs": [
        {
          "name": "",
          "type": "address"
        }
      ],
      "name": "politicianVote",
      "outputs": [
        {
          "name": "",
          "type": "bool"
        }
      ],
      "payable": false,
      "stateMutability": "view",
      "type": "function"
    },
    {
      "inputs": [],
      "payable": false,
      "stateMutability": "nonpayable",
      "type": "constructor"
    },
    {
      "anonymous": false,
      "inputs": [
        {
          "indexed": false,
          "name": "_user",
          "type": "address"
        },
        {
          "indexed": false,
          "name": "_amount",
          "type": "uint256"
        },
        {
          "indexed": false,
          "name": "_desiredOutcome",
          "type": "bool"
        }
      ],
      "name": "Deposited",
      "type": "event"
    },
    {
      "constant": false,
      "inputs": [
        {
          "name": "desiredOutcome",
          "type": "bool"
        }
      ],
      "name": "deposit",
      "outputs": [],
      "payable": true,
      "stateMutability": "payable",
      "type": "function"
    },
    {
      "constant": false,
      "inputs": [
        {
          "name": "outcome",
          "type": "bool"
        }
      ],
      "name": "resolve",
      "outputs": [],
      "payable": false,
      "stateMutability": "nonpayable",
      "type": "function"
    },
    {
      "constant": false,
      "inputs": [
        {
          "name": "politician",
          "type": "address"
        },
        {
          "name": "vote",
          "type": "bool"
        }
      ],
      "name": "addPoliticianVote",
      "outputs": [],
      "payable": false,
      "stateMutability": "nonpayable",
      "type": "function"
    }
  ],
  "bytecode": "0x6060604052341561000f57600080fd5b336000806101000a81548173ffffffffffffffffffffffffffffffffffffffff021916908373ffffffffffffffffffffffffffffffffffffffff160217905550610d838061005e6000396000f30060606040526004361061008e576000357c0100000000000000000000000000000000000000000000000000000000900463ffffffff1680630bede3f8146100935780630f6ca1a8146100b8578063365b98b2146101105780635401b7ea14610173578063729cf94a146101b75780637dc0d1d01461021a578063c57273c21461026f578063d623844614610289575b600080fd5b341561009e57600080fd5b6100b6600480803515159060200190919050506102da565b005b34156100c357600080fd5b6100ef600480803573ffffffffffffffffffffffffffffffffffffffff1690602001909190505061091f565b60405180838152602001821515151581526020019250505060405180910390f35b341561011b57600080fd5b6101316004808035906020019091905050610950565b604051808273ffffffffffffffffffffffffffffffffffffffff1673ffffffffffffffffffffffffffffffffffffffff16815260200191505060405180910390f35b341561017e57600080fd5b6101b5600480803573ffffffffffffffffffffffffffffffffffffffff16906020019091908035151590602001909190505061098f565b005b34156101c257600080fd5b6101d86004808035906020019091905050610ad8565b604051808273ffffffffffffffffffffffffffffffffffffffff1673ffffffffffffffffffffffffffffffffffffffff16815260200191505060405180910390f35b341561022557600080fd5b61022d610b17565b604051808273ffffffffffffffffffffffffffffffffffffffff1673ffffffffffffffffffffffffffffffffffffffff16815260200191505060405180910390f35b61028760048080351515906020019091905050610b3c565b005b341561029457600080fd5b6102c0600480803573ffffffffffffffffffffffffffffffffffffffff16906020019091905050610ce6565b604051808215151515815260200191505060405180910390f35b6000806000809054906101000a900473ffffffffffffffffffffffffffffffffffffffff1673ffffffffffffffffffffffffffffffffffffffff163373ffffffffffffffffffffffffffffffffffffffff1614151561033857600080fd5b821561062e57600060075414151561035d5760075460055481151561035957fe5b0491505b600090505b600380549050811015610483576002600060038381548110151561038257fe5b906000526020600020900160009054906101000a900473ffffffffffffffffffffffffffffffffffffffff1673ffffffffffffffffffffffffffffffffffffffff1673ffffffffffffffffffffffffffffffffffffffff16815260200190815260200160002060009054906101000a900460ff16156104765760038181548110151561040a57fe5b906000526020600020900160009054906101000a900473ffffffffffffffffffffffffffffffffffffffff1673ffffffffffffffffffffffffffffffffffffffff166108fc839081150290604051600060405180830381858888f19350505050151561047557600080fd5b5b8080600101915050610362565b600090505b60048054905081101561062957600160006004838154811015156104a857fe5b906000526020600020900160009054906101000a900473ffffffffffffffffffffffffffffffffffffffff1673ffffffffffffffffffffffffffffffffffffffff1673ffffffffffffffffffffffffffffffffffffffff16815260200190815260200160002060010160009054906101000a900460ff16151561061c5760048181548110151561053457fe5b906000526020600020900160009054906101000a900473ffffffffffffffffffffffffffffffffffffffff1673ffffffffffffffffffffffffffffffffffffffff166108fc6001600060048581548110151561058c57fe5b906000526020600020900160009054906101000a900473ffffffffffffffffffffffffffffffffffffffff1673ffffffffffffffffffffffffffffffffffffffff1673ffffffffffffffffffffffffffffffffffffffff168152602001908152602001600020600001549081150290604051600060405180830381858888f19350505050151561061b57600080fd5b5b8080600101915050610488565b61091a565b600060085414151561064d5760085460065481151561064957fe5b0491505b600090505b600380549050811015610774576002600060038381548110151561067257fe5b906000526020600020900160009054906101000a900473ffffffffffffffffffffffffffffffffffffffff1673ffffffffffffffffffffffffffffffffffffffff1673ffffffffffffffffffffffffffffffffffffffff16815260200190815260200160002060009054906101000a900460ff161515610767576003818154811015156106fb57fe5b906000526020600020900160009054906101000a900473ffffffffffffffffffffffffffffffffffffffff1673ffffffffffffffffffffffffffffffffffffffff166108fc839081150290604051600060405180830381858888f19350505050151561076657600080fd5b5b8080600101915050610652565b600090505b600480549050811015610919576001600060048381548110151561079957fe5b906000526020600020900160009054906101000a900473ffffffffffffffffffffffffffffffffffffffff1673ffffffffffffffffffffffffffffffffffffffff1673ffffffffffffffffffffffffffffffffffffffff16815260200190815260200160002060010160009054906101000a900460ff161561090c5760048181548110151561082457fe5b906000526020600020900160009054906101000a900473ffffffffffffffffffffffffffffffffffffffff1673ffffffffffffffffffffffffffffffffffffffff166108fc6001600060048581548110151561087c57fe5b906000526020600020900160009054906101000a900473ffffffffffffffffffffffffffffffffffffffff1673ffffffffffffffffffffffffffffffffffffffff1673ffffffffffffffffffffffffffffffffffffffff168152602001908152602001600020600001549081150290604051600060405180830381858888f19350505050151561090b57600080fd5b5b8080600101915050610779565b5b505050565b60016020528060005260406000206000915090508060000154908060010160009054906101000a900460ff16905082565b60048181548110151561095f57fe5b90600052602060002090016000915054906101000a900473ffffffffffffffffffffffffffffffffffffffff1681565b6000809054906101000a900473ffffffffffffffffffffffffffffffffffffffff1673ffffffffffffffffffffffffffffffffffffffff163373ffffffffffffffffffffffffffffffffffffffff161415156109ea57600080fd5b600380548060010182816109fe9190610d06565b9160005260206000209001600084909190916101000a81548173ffffffffffffffffffffffffffffffffffffffff021916908373ffffffffffffffffffffffffffffffffffffffff1602179055505080600260008473ffffffffffffffffffffffffffffffffffffffff1673ffffffffffffffffffffffffffffffffffffffff16815260200190815260200160002060006101000a81548160ff0219169083151502179055508015610ac157600760008154809291906001019190505550610ad4565b6008600081548092919060010191905055505b5050565b600381815481101515610ae757fe5b90600052602060002090016000915054906101000a900473ffffffffffffffffffffffffffffffffffffffff1681565b6000809054906101000a900473ffffffffffffffffffffffffffffffffffffffff1681565b60048054806001018281610b509190610d06565b9160005260206000209001600033909190916101000a81548173ffffffffffffffffffffffffffffffffffffffff021916908373ffffffffffffffffffffffffffffffffffffffff1602179055505034600160003373ffffffffffffffffffffffffffffffffffffffff1673ffffffffffffffffffffffffffffffffffffffff168152602001908152602001600020600001819055508015610c015734600560008282540192505081905550610c12565b346006600082825401925050819055505b80600160003373ffffffffffffffffffffffffffffffffffffffff1673ffffffffffffffffffffffffffffffffffffffff16815260200190815260200160002060010160006101000a81548160ff0219169083151502179055507f35dbbfd0d3585577ae3feb7437be44befd94c36d05e086795fa0016e0d22d496333483604051808473ffffffffffffffffffffffffffffffffffffffff1673ffffffffffffffffffffffffffffffffffffffff16815260200183815260200182151515158152602001935050505060405180910390a150565b60026020528060005260406000206000915054906101000a900460ff1681565b815481835581811511610d2d57818360005260206000209182019101610d2c9190610d32565b5b505050565b610d5491905b80821115610d50576000816000905550600101610d38565b5090565b905600a165627a7a72305820061b88afc294d5ae3776740cd743494639292e5d9999f817f38e998d173c527c0029",
  "source": "pragma solidity^0.4.18;\n\ncontract Legislation {\n\n    struct earmarkedDeposit {\n        uint amount;\n        bool outcome;\n    }\n\n    address public oracle;\n    mapping (address => earmarkedDeposit) public userContributions;\n    mapping (address => bool) public politicianVote;\n    address[] public politiciansThatVoted;\n    address[] public users;\n    uint totalFundsForInWei;\n    uint totalFundsAgainstInWei;\n    uint numVotesFor;\n    uint numVotesAgainst;\n\n    event Deposited(address _user, uint _amount, bool _desiredOutcome);\n\n    modifier onlyOracle() {\n        require(msg.sender == oracle);\n        _;\n    }\n\n    function Legislation() public {\n        oracle = msg.sender;\n    }\n\n    function deposit(bool desiredOutcome) public payable {\n        users.push(msg.sender);\n        userContributions[msg.sender].amount = msg.value;\n        if (desiredOutcome) {\n            totalFundsForInWei += msg.value;\n        } else {\n            totalFundsAgainstInWei += msg.value;\n        }\n        userContributions[msg.sender].outcome = desiredOutcome;\n\n        Deposited(msg.sender, msg.value, desiredOutcome);\n    }\n\n    function resolve(bool outcome) onlyOracle {\n        \n        uint politicianSplit;\n        uint i;\n\n        if (outcome) {\n            if (numVotesFor != 0)\n                politicianSplit = totalFundsForInWei / numVotesFor;\n\n            for (i = 0; i < politiciansThatVoted.length; i++) {\n                if (politicianVote[politiciansThatVoted[i]]) {\n                    politiciansThatVoted[i].transfer(politicianSplit);\n                }\n            }\n\n            for (i = 0; i < users.length; i++) {\n                if (!userContributions[users[i]].outcome) {\n                    users[i].transfer(userContributions[users[i]].amount);\n                }\n            }\n\n        } else {\n\n            if (numVotesAgainst != 0)\n                politicianSplit = totalFundsAgainstInWei / numVotesAgainst;\n\n            for (i = 0; i < politiciansThatVoted.length; i++) {\n                if (!politicianVote[politiciansThatVoted[i]]) {\n                    politiciansThatVoted[i].transfer(politicianSplit);\n                }\n            }\n\n            for (i = 0; i < users.length; i++) {\n                if (userContributions[users[i]].outcome) {\n                    users[i].transfer(userContributions[users[i]].amount);\n                }\n            }\n\n        }\n\n    }\n\n    function addPoliticianVote(address politician, bool vote) onlyOracle {\n        politiciansThatVoted.push(politician);\n        politicianVote[politician] = vote;\n\n        if (vote) {\n            numVotesFor++;\n        } else {\n            numVotesAgainst++;\n        }\n\n    }\n}\n",
  "sourcePath": "/Users/felipefaria/Desktop/dcsummit2018/contracts/Legislation.sol",
  "compiler": {
    "name": "solc",
    "version": "0.4.19+commit.c4cbbb05.Emscripten.clang"
  },
  "schemaVersion": "2.0.0",
  "updatedAt": "2018-03-07T08:14:24.318Z"
}